{
    "txid": "be70b847f5c97c5bb3ae72ecb80aeb80c90cabdba509d63a497416888a1f00a9",
    "hash": "be70b847f5c97c5bb3ae72ecb80aeb80c90cabdba509d63a497416888a1f00a9",
    "version": 1,
    "size": 124,
    "locktime": 0,
    "vin": [
    ],
    "vout": [
        {
            "value": 1000000.00000000,
            "n": 0,
            "scriptPubKey": {
                "asm": "2 02a5613bd857b7048924264d1e70e08fb2a7e6527d32b7ab1bb993ac59964ff397 021ac43c7ff740014c3b33737ede99c967e4764553d1b2b83db77c83b8715fa72d 02df2089105c77f266fa11a9d33f05c735234075f2e8780824c6b709415f9fb485 3 OP_CHECKMULTISIG",
                "hex": "522102a5613bd857b7048924264d1e70e08fb2a7e6527d32b7ab1bb993ac59964ff39721021ac43c7ff740014c3b33737ede99c967e4764553d1b2b83db77c83b8715fa72d2102df2089105c77f266fa11a9d33f05c735234075f2e8780824c6b709415f9fb48553ae",
                "reqSigs": 2,
                "type": "multisig",
                "addresses": [
                    "DKwMZJ4jYfwAhJckKCMUFz2vrDqscXPMxB",
                    "DKfzXQG7RiH3wE9tNJEKd3PK3UdgQshoTP",
                    "D8V18BYptwTpq6eUidbj2AtkL396fFAR4Y"
                ]
            }
        }
    ],
    "hex": "01000000000100407a10f35a000069522102a5613bd857b7048924264d1e70e08fb2a7e6527d32b7ab1bb993ac59964ff39721021ac43c7ff740014c3b33737ede99c967e4764553d1b2b83db77c83b8715fa72d2102df2089105c77f266fa11a9d33f05c735234075f2e8780824c6b709415f9fb48553ae00000000"
}
