{
    "txid": "c1e8b9210c838acbd3ef821d426f52306c7843a1f0c4390fe54d79e00544d299",
    "hash": "c1e8b9210c838acbd3ef821d426f52306c7843a1f0c4390fe54d79e00544d299",
    "version": 2,
    "size": 85,
    "locktime": 0,
    "vin": [
        {
            "txid": "5897de6bd6027a475eadd57019d4e6872c396d0716c4875a5f1a6fcfdf385c1f",
            "vout": 0,
            "scriptSig": {
                "asm": "",
                "hex": ""
            },
            "sequence": 4294967293
        }
    ],
    "vout": [
        {
            "value": 180000.00000000,
            "n": 0,
            "scriptPubKey": {
                "asm": "OP_DUP OP_HASH160 1fc11f39be1729bf973a7ab6a615ca4729d64574 OP_EQUALVERIFY OP_CHECKSIG",
                "hex": "76a9141fc11f39be1729bf973a7ab6a615ca4729d6457488ac",
                "reqSigs": 1,
                "type": "pubkeyhash",
                "addresses": [
                    "D82zqZA4KqaTPmsGegJ1ACoTXiSJ21NcZd"
                ]
            }
        }
    ],
    "hex": "02000000011f5c38dfcf6f1a5f5a87c416076d392c87e6d41970d5ad5e477a02d66bde97580000000000fdffffff0100209bf35e1000001976a9141fc11f39be1729bf973a7ab6a615ca4729d6457488ac00000000"
}
