{
    "txid": "385e14a819b4b72889dc6d9b7d4c573c722c9b2fe9b6305de5faa2a0344b28c1",
    "hash": "385e14a819b4b72889dc6d9b7d4c573c722c9b2fe9b6305de5faa2a0344b28c1",
    "version": 1,
    "size": 176,
    "locktime": 0,
    "vin": [
        {
            "txid": "5897de6bd6027a475eadd57019d4e6872c396d0716c4875a5f1a6fcfdf385c1f",
            "vout": 0,
            "scriptSig": {
                "asm": "",
                "hex": ""
            },
            "sequence": 4294967295
        }
    ],
    "vout": [
        {
            "value": 180000.00000000,
            "n": 0,
            "scriptPubKey": {
                "asm": "OP_DUP OP_HASH160 1fc11f39be1729bf973a7ab6a615ca4729d64574 OP_EQUALVERIFY OP_CHECKSIG",
                "hex": "76a9141fc11f39be1729bf973a7ab6a615ca4729d6457488ac",
                "reqSigs": 1,
                "type": "pubkeyhash",
                "addresses": [
                    "13tuJJDR2RgArmgfv6JScSdreahzgc4T6o"
                ]
            }
        },
        {
            "value": 4000000.00000000,
            "n": 1,
            "scriptPubKey": {
                "asm": "OP_RETURN 54686973204f505f52455455524e207472616e73616374696f6e206f7574707574207761732063726561746564206279206d6f646966696564206372656174657261777472616e73616374696f6e2e",
                "hex": "6a4c4f54686973204f505f52455455524e207472616e73616374696f6e206f7574707574207761732063726561746564206279206d6f646966696564206372656174657261777472616e73616374696f6e2e",
                "type": "nulldata"
            }
        }
    ],
    "hex": "01000000011f5c38dfcf6f1a5f5a87c416076d392c87e6d41970d5ad5e477a02d66bde97580000000000ffffffff0200209bf35e1000001976a9141fc11f39be1729bf973a7ab6a615ca4729d6457488ac0000e941cc6b0100526a4c4f54686973204f505f52455455524e207472616e73616374696f6e206f7574707574207761732063726561746564206279206d6f646966696564206372656174657261777472616e73616374696f6e2e00000000"
}
